:10000000CAEF05F00000000000EF00F00000000063
:0A0010000000000000000000F3D71C
:08001C000AAE029E000E120064
:100024000B820BAE1CEF00F00368026801680068E5
:080034000A360232FF0E120031
:0E003C00026A016A006A086A036A000E120076
:10004A000B840BAE30EF00F0010E036E026A016AF8
:0A005A00006A0A360232FF0E12009F
:0E006400ACB202D00000FCD759C0ADFF1200B4
:10007200086A096A000E07620364BEEF00F00250CC
:1000820006180A6E075003267E0ED8A04FEF00F026
:10009200035ED8B0C2EF00F053EF00F0035ED8A0C9
:1000A200C6EF00F0028E068E02C00EF001C00BF009
:1000B20000C00DF000500402F4CF0CF00150050214
:1000C200F4CF00F0F3CF08F00402F3500C26F45002
:1000D2000822000E00220D500502F3500C26F450A7
:1000E2000822000E002202500402F3500826F450A7
:1000F200002202500502016A000E0122F35000267E
:10010200F45001220D500602F3500826F45000224A
:10011200026A000E012202220B500602F350002650
:10012200F4500122000E02220E500602F350012664
:10013200F450022202BEA6EF00F008360036013665
:1001420002360306D8B4C6EF00F0B9EF00F0D8804B
:10015200800E08640030000E002201220222D8A084
:10016200B9EF00F0023201320032034AC2EF00F06E
:100172000AAE029E000EC8EF00F0010E5EDFC8EF6D
:1001820000F0020E4EDFC8EF00F0040E5DDF120039
:0C0192000E0E0D6E0D2EFED700001200A8
:10019E000C6A0E6A0250D8A4E8EF00F001C002F01B
:1001AE0000C001F0006A0E860250D8A4E8EF00F0FD
:1001BE0001C002F0016A0E960E880250D8B4FAEF12
:1001CE0000F00E50035ED8A4D8A0FFEF00F0D89038
:1001DE0002BE04EF01F0003601360236032EEFEFB9
:1001EE0000F0FFEF00F0010E0C6E21DF07EF01F0C3
:1001FE00020E0C6E23DF07EF01F0040E0C6E07DF0C
:02020E001200DC
:080210000B6A0B86FF0E1200C1
:100218000D6A086A0050D8B4000C04180A6E0ABEA9
:100228000D1E0B6A04AE02D0041E042A00AE02D0D2
:10023800001E002A005004100A6E0ABE1FD0045087
:10024800085E003600340836045008260036060ECC
:100258000C6E00340836045000B0085E00A0082672
:1002680000360C2EF6D700A008260BB015D00DAE20
:10027800000C001E002A081E082A000C04AE09D033
:1002880000BE04D00050086E006AF1D7006A002A48
:10029800000C001E0B2AD3D7082A0450085CD8A4E7
:0E02A800E6D7086A002A00AEE2D7FF0C12006B
:1002B6000A6A0350D8A40A800750D8A40A820A50B2
:1002C600D8B4BEEF01F0030AD8B477EF01F00AB054
:1002D60072EF01F006AEBCEF01F0BAEF01F002AE2C
:1002E600BAEF01F0BCEF01F00250800B0A6E029EDD
:1002F6000650800B069E0A18D8B488EF01F00A5003
:10030600D8B4BAEF01F0BCEF01F00750035CD8B4E3
:1003160092EF01F0D8A0AEEF01F0B4EF01F0065075
:10032600025CD8B49CEF01F0D8A0AEEF01F0B4EFB8
:1003360001F00550015CD8B4A6EF01F0D8A0AEEFED
:1003460001F0B4EF01F00450005CD8B4BEEF01F048
:10035600D8B0B4EF01F00A52D8B4BCEF01F0BAEF4E
:1003660001F00A52D8B4BAEF01F0BCEF01F0D88020
:0E0376001200D8901200D880D8841200120015
:1003840059C004F05AC005F004C002F005C003F0DF
:10039400044A052A5BC000F05CC001F05B4A5C2A99
:1003A40000C0E9FF01C0EAFF02C0E1FF03C0E2FFB1
:1003B400EECFE6FF02C0E9FF03C0EAFFEE5201E020
:0C03C400E3D759C000F05AC001F012004D
:1003D000AECF01F0ABA202D0AB98AB8801C000F069
:0203E000120009
:0A03E200000E9EBA010E006E12001C
:1003EC001E0E2C6E070E2D6E4B0E2E6E000E2F6EEB
:1003FC00C26A191C006E0050C116070EC012C08EC6
:04040C00C280120098
:100410000900F5CFE6FF0006FBE10106F9E1120055
:10042000516A526A4F5241E04F50FF0AD8A44F061A
:10043000D8DF0050000A01E1FBD7CADF00C050F04E
:1004400051504B24E16E000E4C20E26E00C0E6FFDE
:10045000512A52504D24E96E000E4E20EA6EEE50A5
:10046000501802E1522A09D0526A4DC0E9FF4EC02D
:10047000EAFFEE505018D8B4522A52504D24E96E7B
:10048000000E4E20EA6EEE50000A0EE15250515C12
:10049000006E016A000E015A00504B24E16E0150BB
:1004A0004C20E26EE66A06D0BDD74BC0E1FF4CC0DF
:0604B000E2FFE66A120003
:1004B600640E476E000E486E590E496E000E4A6E67
:1004C600D00E3B6E030E3C6E000E3D6E000E3E6E71
:1004D600E20E3F6E030E406E000E416E000E426E3F
:1004E600FF0E436EFF0E446E000E456E000E466E06
:1004F600AC8A900EAB6E948E949C9EAA03D0AECF1F
:0605060000F0FBD712001B
:10050C004E6A4BC0E9FF4CC0EAFFEECF4DF04D50A8
:10051C00000A0DE04DC059F09FDD4E2A4E504B2481
:10052C00E96E000E4C20EA6EEECF4DF0F0D71200C3
:10053C004D6A4E6A4BC003F04CC004F04BC005F042
:10054C004CC006F003C0E9FF04C0EAFFEE50200ADD
:10055C0004E14D504E1001E110D0010E4D6E000E15
:10056C004E6E03C0E9FF04C0EAFF05C0E1FF06C000
:10057C00E2FFEECFE6FF054A062A03C001F004C0F5
:10058C0002F0034A042A01C0E9FF02C0EAFFEE5060
:0E059C00000AD8E14BC000F04CC001F0120084
:1005AA000450000A12E10550000A0FE10650000A41
:1005BA000CE10750000A09E1FF0E006EFF0E016E02
:1005CA007F0E026EFF0E036EA4D0086A096A0750F6
:1005DA00D8B480EF03F00350D8B484EF03F002508C
:1005EA0006180A6E028E068E0E6A02C008F001C054
:1005FA000CF000C00DF004500D5E0550D8A0053C6B
:10060A000C5E0650D8A0063C085E086A0C6A0D6AA1
:10061A00D8A017EF03F0D890023201320032083224
:10062A00010E0E6E0750035ED8A024EF03F07E0E73
:10063A000E240326D8B088EF03F02AEF03F07E0ECB
:10064A000E240326D8A08CEF03F0180E0B6E0D367D
:10065A000C3608360036013602360E360450005E75
:10066A000550D8A0053C015E0650D8A0063C025EA3
:10067A0006340E120EA045EF03F00D8050EF03F082
:10068A00045000260550D8B0053C01260650D8B0C3
:10069A00062802260D900B2E2CEF03F076EF03F0BE
:1006AA00D8900036013602360E360450005E0550E8
:1006BA00D8A0053C015E0650D8A0063C025E06346E
:1006CA000E10010B0D26D8B00C2AD8B4082AD8A4CB
:1006DA0076EF03F008320C320D32032AD8B488EFD1
:1006EA0003F00AAE089E0850026E0C50016E0D50BF
:1006FA00006E8EEF03F0010E86DD8EEF03F0020E20
:10070A0098DC8EEF03F0040E88DC8EEF03F0080EFF
:04071A0097DC120056
:10071E00830EC2164BC000F00036009000360090DB
:10072E000050C2122FDDC282C2A201D0FDD7C4CFAB
:0E073E0001F0006AC3500012000E01121200FA
:10074C000050086E0150006E016A026A036A0B6A5F
:10075C000C6A960E036E0A6A00C001F008C000F025
:08076C00086A026A16DD1200A2
:10077400576A586A4BC053F04CC054F04DC055F002
:100784004EC056F05650FF0A08E15550FF0A05E1E5
:100794005450FF0A02E15350FF0A0CE14FC059F0D4
:1007A40050C05AF01A0E5B6E000E5C6EE9DD030E4B
:1007B400006EEDD1010E516E55AE0ED0800E55185F
:1007C400006E00C055F0512A4FC0E1FF50C0E2FF57
:1007D4002D0EE66E4F4A502A000E006E561808E1A0
:1007E4000050551805E10050541802E15350000A16
:1007F4000BE14FC059F050C05AF01E0E5B6E000E54
:100804005C6EBEDD006AC3D15650FF0A08E1555044
:10081400000A05E15450000A02E15350000A0CE1B9
:100824004FC059F050C05AF0200E5B6E000E5C6E43
:10083400A7DD51C000F0ABD1000E046E000E056EB2
:10084400000E066E7F0E076E53C000F054C001F018
:1008540055C002F056C003F02CDD010ED8B0000ED6
:10086400006E00521CE053C000F054C001F055C0AB
:1008740002F056C003F0000E046E000E056E200E4A
:10088400066E820E076E39EC00F000C053F001C012
:1008940054F002C055F003C056F05806CDD7000EF0
:1008A400046E000E056E200E066E820E076E53C097
:1008B40000F054C001F055C002F056C003F0F9DC5A
:1008C400000ED8B0010E006E00521CE053C000F0C0
:1008D40054C001F055C002F056C003F0CD0E046EB2
:1008E400CC0E056E4C0E066E7B0E076E39EC00F0D6
:1008F40000C053F001C054F002C055F003C056F0DC
:10090400582ACDD7FF0E5314086EFF0E5414096EE7
:100914007F0E55140A6E000E56140B6E08C004F0B8
:1009240009C005F00AC006F00BC007F004360490B5
:10093400053606360736000E5314006E000E5414A6
:10094400016E000E5514026EFF0E5614036E00C0A5
:1009540053F001C054F002C055F003C056F00450E7
:100964005310006E05505410016E06505510026E5F
:1009740007505610036E00C053F001C054F002C07B
:1009840055F003C056F07F0E565C006E00C052F066
:10099400010E566E00C004F053C000F054C001F0C4
:1009A40055C002F056C003F0045007E00036009032
:1009B400013602360336FF0FF8D700C053F001C0EA
:1009C40054F002C055F003C056F04FC0E1FF50C0D0
:1009D400E2FF5650300FE66E4F4A502A800E5818E8
:1009E400006E800E010A005C08E3800E060A006EA9
:1009F400800E5818005C01E30AD04FC0E1FF50C0DC
:100A0400E2FF2E0EE66E4F4A502A010E576E060E76
:100A1400526E5250000A54E0566A53C000F054C05B
:100A240001F055C002F056C003F0003600900136C4
:100A34000236033600360090013602360336535030
:100A4400002654500122555002225650032200C061
:100A540053F001C054F002C055F003C056F053C027
:100A640000F054C001F055C002F056C003F0003647
:100A7400009001360236033600C053F001C054F032
:100A840002C055F003C056F04FC0E1FF50C0E2FF72
:100A94005650300FE66E4F4A502A5750000A0EE166
:100AA40058065850000A0AE14FC0E1FF50C0E2FF67
:100AB4002E0EE66E4F4A502A010E576E5206A9D7E3
:100AC400FF0E4F24E96EFF0E5020EA6EEE50300AFE
:100AD40005E1010E4F5E000E505AF2D7FF0E4F246F
:100AE400E96EFF0E5020EA6EEE502E0A04E1010E6C
:100AF4004F5E000E505A5850000A43E04FC0E1FFC9
:100B040050C0E2FF650EE66E4F4A502A800E581818
:100B1400006E800E000A005C0BE24FC0E1FF50C083
:100B2400E2FF2D0EE66E4F4A502A58500008586EC8
:100B340058C052F0800E090A006E800E5818005CEE
:100B44000FE20A0E046E52C000F00CEC01F04FC02C
:100B5400E1FF50C0E2FF0050300FE66E4F4A502ACA
:100B64000A0E046E52C000F00CEC01F008C000F054
:100B74004FC0E1FF50C0E2FF0050300FE66E4F4A15
:100B8400502A4FC0E1FF50C0E2FFE66A006A12003B
:100B940044EC06F00C0EC16E27DC956A936A816AF8
:100BA400836A94948294B886B06ACF0EAF6EAC8494
:100BB40080DC15DC0050010A5BE1340E4B6E000E44
:100BC4004C6E170E4D6E000E4E6E0A0E4F6E26DCE6
:100BD40034505B0A4DE13550430A08E13650310A7E
:100BE400D8B482843650300AD8B482943550540A2A
:100BF4003FE1020E4B6E91DD00C039F001C03AF0C6
:100C0400A3DDCD0E046ECC0E056E1C0E066E810E99
:100C1400076E39EC00F0000E046E000E056E200E17
:100C2400066E820E076EBFDC00C030F001C031F0EA
:100C340002C032F003C033F000C04BF001C04CF0EE
:100C440002C04DF003C04EF0240E4F6E000E506EE5
:100C54008FDD240E4B6E000E4C6E6EDC240E4B6E3C
:100C6400000E4C6E51DC150E4B6E000E4C6E4CDCBF
:040C7400A0D7FFD72F
:100C880010EE15F00F0E006E010E016E780EF66E66
:0E0C98000C0EF76E000EF86E08EC02F0120063
:020C78000A0070
:020C7A005D001B
:010C7C003047
:040C7D004E614E0076
:020C8100300041
:040C8300494E460090
:020000040030CA
:0D000100021F1EFF8381FF0FC00FE00F40A4
:00000001FF
